:100000000C9432000C944F000C944F000C94370663
:100010000C944F000C947C060C944F000C944F00F1
:100020000C944F000C944F000C944F000C944F0014
:100030000C944F000C944F000C944F000C944F0004
:100040000C944F000C944F000C944F000C944F00F4
:100050000C944F00CE05D205D705DC05E105E60579
:10006000EB05F00511241FBECFE5D8E0DEBFCDBF04
:1000700010E0A0E6B0E0E8E9F2E102C005900D92E0
:10008000A236B107D9F720E0A2E6B0E001C01D9288
:10009000A237B207E1F70E94C0020C944A090C94FF
:1000A00000000E94BE000E943A020895DF92EF9283
:1000B000FF920F931F93CF93DF93CDB7DEB72897AF
:1000C0000FB6F894DEBF0FBECDBF0E946402CE0112
:1000D00001960E947502D980EA80FB800C811D8107
:1000E000BE81FF81E8852D2D3E2D4F2D502F612F94
:1000F0007B2F8F2F9E2FA9E10E942F0909F038F442
:10010000109262006EE182E00E94CD001FC02D2D92
:100110003E2D4F2D502F612F7B2F8F2F9E2FA6EE20
:100120000E942309A4E00E942F0909F040F481E015
:10013000809362006EE183E00E94CD0007C082E000
:10014000809362006EE181E00E94CD002FEF81EE8E
:1001500094E0215080409040E1F700C0000081E031
:1001600028960FB6F894DEBF0FBECDBFDF91CF91BA
:100170001F910F91FF90EF90DF90089581E00E9412
:10018000270161E081E00E946A0182E00E9427016C
:1001900061E082E00E946A010895CF93DF93C82F47
:1001A000D62F80916000882349F01092600081E092
:1001B0000E94D3016D2F82E00E94D3016D2F81E058
:1001C0000E94F6016D2F82E00E94F601C230E9F034
:1001D00028F4CC2341F0C13071F035C0C330F9F0C0
:1001E000C43039F130C081E00E94190282E00E94DF
:1001F000190281E029C061E081E00E946A0161E0AA
:1002000082E00E946A0181E01FC062E081E00E94FA
:100210006A0162E082E00E946A0181E015C062E04A
:1002200081E00E946A0161E082E00E946A0181E04F
:100230000BC061E081E00E946A0162E082E00E94FE
:100240006A0181E001C08FEFDF91CF9108950F9394
:100250001F93CF938330C0F5813019F0823071F055
:100260001AC0E7E6F0E083E080838FEF82838CE1C1
:10027000818381E080936400C1E00EC0E7E6F0E096
:1002800083E080838FEF828380EE818381E080939F
:100290006300C1E001C0CFEF05E610E083E0F801A4
:1002A000808381E08183C8010E94950387E690E006
:1002B0000E94C60222E330E040E050E060E0F80136
:1002C00080810E94DC0301C0CFEF8C2FCF911F9162
:1002D0000F910895833008F05CC0633008F05BC074
:1002E000813019F0823059F158C0613021F0D8F0D6
:1002F000623069F054C04FEF64E083E00E9437033E
:1003000040E068E083E00E94370381E0089540E028
:1003100064E083E00E9437034FEF68E083E00E94CF
:10032000370381E0089540E064E083E00E943703F2
:1003300040E068E083E00E94370381E00895613087
:1003400021F0D8F0623069F02CC04FEF60E483E018
:100350000E94370340E060E883E00E94370381E0B9
:10036000089540E060E483E00E9437034FEF60E8C7
:1003700083E00E94370381E0089540E060E483E079
:100380000E94370340E060E883E00E94370381E089
:1003900008958FEF08958FEF08958FEF08958FEFF1
:1003A00008958FEF08958330D8F46536D8F48130FE
:1003B00019F0823059F018C022E330E040E050E0FC
:1003C000809165000E94DC0381E0089522E330E023
:1003D00040E050E0809165000E94DC0381E00895D8
:1003E0008FEF08958FEF08958FEF08958330D8F43D
:1003F0006536D8F4813019F0823059F018C022E304
:1004000030E040E050E0809165000E94250481E0EA
:10041000089522E330E040E050E0809165000E94C2
:10042000250481E008958FEF08958FEF08958FEFF1
:1004300008958330D8F4813019F0823061F018C00B
:1004400022E330E040E050E060E0809165000E94EF
:10045000250481E0089522E330E040E050E060E0D0
:10046000809165000E94250481E008958FEF089532
:100470008FEF08951F93CF93DF9300D000D01F928A
:10048000CDB7DEB782E089838A83CE0101960E94D0
:10049000940683E08B8311E01C838FEF8D83CE0164
:1004A00003960E94C6021B8384E08C831D82CE01CA
:1004B00003960E94C6020F900F900F900F900F901E
:1004C000DF91CF911F9108954FEF61E083E00E948B
:1004D00037038FE39CE90197F1F700C0000040E08B
:1004E00061E083E00E9437030895EF92FF920F933B
:1004F0001F93CF93DF93CDB7DEB728970FB6F8944D
:10050000DEBF0FBECDBF7C0119821A821B821C8206
:100510001D821E821F821886AE014F5F5F4F62E010
:1005200082E00E94F806182F29813A814B815C8174
:100530006D817E818F81988501E00E94FE080E9476
:10054000110820E030E048E652E40E9463070E9470
:10055000DA07F701208331834283538364837583F1
:1005600086839783812F28960FB6F894DEBF0FBE3F
:10057000CDBFDF91CF911F910F91FF90EF90089524
:1005800078940E9451000E945600FDCFFC01228108
:100590003FEF320F3E3F08F45CC03081343008F04A
:1005A0005AC03130D1F028F0323059F13330E9F10E
:1005B00054C0222319F02F3F49F051C02AB3FC0147
:1005C0008181809582238ABB81E008952AB3FC0152
:1005D0008181822B8ABB81E00895222319F02F3F6D
:1005E00049F03FC027B3FC0181818095822387BBFE
:1005F00081E0089527B3FC018181822B87BB81E0D4
:100600000895222319F02F3F49F02DC024B3FC0197
:1006100081818095822384BB81E0089524B3FC010D
:100620008181822B84BB81E00895222319F02F3F22
:1006300049F01BC021B3FC0181818095822381BBDD
:1006400081E0089521B3FC018181822B81BB81E08F
:1006500008958FEF08958FEF08958FEF089581E04B
:10066000089581E0089581E0089581E0089584303F
:1006700008F04DC09FEF940F9E3F08F44AC08130B0
:10068000B1F028F0823019F1833089F144C044235D
:1006900019F04F3F39F041C08BB3609568236BBBB5
:1006A00081E008958BB3682B6BBB81E008954423F0
:1006B00019F04F3F39F033C088B36095682368BBA9
:1006C00081E0089588B3682B68BB81E008954423D6
:1006D00019F04F3F39F025C085B36095682365BB9D
:1006E00081E0089585B3682B65BB81E008954423BC
:1006F00019F04F3F39F017C082B36095682362BB91
:1007000081E0089582B3682B62BB81E008958FEF8A
:1007100008958FEF08958FEF089581E0089581E0A7
:10072000089581E0089581E00895FC01208125303D
:10073000B0F40097D1F415C08EB59FB5806192607A
:100740009FBD8EBD8EB59FB5906A9FBD8EBD84E066
:1007500080936A0081B3806381BB81E008958FEF4D
:1007600008958FEF089581E008951FBC1EBC1DBC45
:100770001CBC1BBC1ABC19BC18BC17BC16BC29B7C6
:100780002F7D29BF29B72F7E29BF29B7277F29BFF2
:1007900029B72B7F29BF28B7206228BF28B720613F
:1007A00028BF28B7286028BF28B7246028BFFC01CD
:1007B0008081833009F2D7CFCF92DF92EF92FF9200
:1007C000CF93DF93D62F69017A0195EFC91AD1082B
:1007D000E108F1089DE7C91691E0D906E104F104AA
:1007E00020F4853020F0CFEF03C0CFEF01C0C1E08F
:1007F0008330E1F4220F331F441F551F64E274EF6E
:1008000080E090E00E94B0081DBC1CBC37BD26BD36
:10081000AD2FB0E00E94D80824E630E040E050E080
:100820000E94B0083BBD2ABD39BD28BD8EB59FB51D
:1008300020916A00822B9FBD8EBD8C2FDF91CF91BE
:10084000FF90EF90DF90CF900895CF92DF92EF92DC
:10085000FF92CF93DF93D62F69017A0195EFC91AE2
:10086000D108E108F1089DE7C91691E0D906E10435
:10087000F10420F4853020F0CFEF03C0CFEF01C0AA
:10088000C1E08330E1F4220F331F441F551F64E29F
:1008900074EF80E090E00E94B0081DBC1CBC37BD26
:1008A00026BDAD2FB0E00E94D80824E630E040E03D
:1008B00050E00E94B0083BBD2ABD39BD28BD8C2F39
:1008C000DF91CF91FF90EF90DF90CF900895FC01E2
:1008D0008081813009F442C020F0823009F498C050
:1008E000CAC013BE12BE89B78E7F89BF89B78D7FFC
:1008F00089BF88B7816088BF8181813041F018F05D
:10090000823051F00EC083B783BF81E00BC083B744
:10091000876083BF81E006C083B7866083BF81E0C4
:1009200001C08FEF9381943041F018F4933040F47C
:1009300004C02AEF290F223018F490936D0001C0F3
:100940008FEF9281992319F0913021F096C099B7D9
:1009500099BF089599B7916099BF08951FBC1EBCB7
:100960001DBC1CBC1BBC1ABC19BC18BC17BC16BCDB
:1009700089B78F7D89BF89B78F7E89BF89B7877F08
:1009800089BF89B78B7F89BF88B7806288BF88B7E6
:10099000806188BF88B7886088BF88B7846088BF57
:1009A0008181813051F018F0823071F014C08EB521
:1009B0009FB59FBD8EBD81E00FC08EB59FB587608E
:1009C0009FBD8EBD81E008C08EB59FB586609FBD7E
:1009D0008EBD81E001C08FEF9381943041F018F417
:1009E000933040F404C02AEF290F223018F490937A
:1009F0006C0001C08FEF9281992319F0913021F0A2
:100A0000089599B799BF089599B7946099BF0895CB
:100A100015BC14BC89B78F7B89BF89B78F7789BF15
:100A200088B7806488BF82B5877F82BD8181882333
:100A300019F0813031F00AC082B5877F82BD81E034
:100A400006C082B5886082BD81E001C08FEF9381CE
:100A5000983018F490936B0001C08FEF9281992326
:100A600019F0913021F0089599B799BF089599B779
:100A7000906499BF089581E008958FEF08958130C3
:100A8000D1F120F0823009F478C0AFC06F3F71051A
:100A900011F008F0ACC062BF80916D008230B9F0F7
:100AA00028F4882359F0813069F0A3C08630C9F05A
:100AB0008730E1F0843009F09CC00EC083B783BF5B
:100AC00081E0089583B7816083BF81E0089583B793
:100AD000826083BF81E0089583B7836083BF81E034
:100AE000089583B7846083BF81E0089583B78560EC
:100AF00083BF81E008957DBD6CBD8EB59FB5887FB5
:100B00009FBD8EBD80916C008230D9F028F488237F
:100B100059F0813079F06FC0863009F1873031F1BA
:100B2000843009F068C014C08EB59FB59FBD8EBDDE
:100B300081E008958EB59FB581609FBD8EBD81E037
:100B400008958EB59FB582609FBD8EBD81E00895EA
:100B50008EB59FB583609FBD8EBD81E008958EB533
:100B60009FB584609FBD8EBD81E008958EB59FB511
:100B700085609FBD8EBD81E008956F3F710509F0CE
:100B8000E0F564BDE0916B008E2F90E08830910518
:100B9000B0F5FC01E65DFF4F0C94D20885B585BD2C
:100BA00081E0089585B5816085BD81E0089585B5B2
:100BB000826085BD81E0089585B5836085BD81E053
:100BC000089585B5846085BD81E0089585B585600B
:100BD00085BD81E0089585B5866085BD81E0089575
:100BE00085B5876085BD81E0089581E008958FEF28
:100BF00008958FEF08958FEF08958FEF08958FEF89
:100C00000895813049F018F0823069F011C083B73F
:100C1000887F83BF81E008958EB59FB5887F9FBD93
:100C20008EBD81E0089585B5887F85BD81E00895FA
:100C30008FEF0895813059F018F0823079F015C0A7
:100C400082B790E0FB019183808381E008958CB5A9
:100C50009DB5FB019183808381E0089584B590E088
:100C6000FB019183808381E008958FEF089578944C
:100C70001F920F920FB60F9211242F933F934F9311
:100C80005F936F937F938F939F93AF93BF93EF93F4
:100C9000FF938FEF8ABB60E070E082E00E943F0527
:100CA00080916F0080FF0CC082E00E9401061092CC
:100CB0006F0081E080936E0084B7806484BF0BC0B6
:100CC00060E070E082E00E943F0581E080936F0069
:100CD00084B78F7B84BFFF91EF91BF91AF919F91BC
:100CE0008F917F916F915F914F913F912F910F90D5
:100CF0000FBE0F901F90189578941F920F920FB609
:100D00000F9211248F939F938091700090917100A6
:100D1000019690937100809370009F918F910F9036
:100D20000FBE0F901F9018950F931F93CF93DF93D3
:100D300000D000D000D0CDB7DEB7009709F448C08E
:100D4000FC012081233008F045C03181333008F0A8
:100D500043C08C012230B1F48BB78F7D8BBF84B739
:100D6000806484BF8AB780628ABF8BB780628BBF82
:100D70001B8281E0898384E08A83CE0101960E94F0
:100D8000C6027894F8018181882319F0823061F0DD
:100D900015C019821A8281E08B8386E08C83CE0194
:100DA00001960E9467040AC082E089831A8291E05A
:100DB0009B838C83CE0101960E9467041092710080
:100DC0001092700010926F0010926E0081E005C0CA
:100DD0008FEF03C08FEF01C08FEF26960FB6F89408
:100DE000DEBF0FBECDBFDF91CF911F910F91089550
:100DF0008F929F92AF92BF92CF92DF92EF92FF922B
:100E00000F931F93CF93DF93CDB7DEB72A970FB61B
:100E1000F894DEBF0FBECDBF8330E8F56330E8F550
:100E200041155105E1F180916E008823E1F34A01FB
:100E3000BE016F5F7F4F82E00E941A0640917000F2
:100E400050917100242F352F40E050E060E070E0B9
:100E500080E090E008E00E94E308E981FA815F0108
:100E6000C12CD12CE12CF12C00E010E00E941A09D9
:100E7000F4012083318342835383648375838683A3
:100E80009783109271001092700010926F00109270
:100E90006E0081E005C08FEF03C08FEF01C08FEFC0
:100EA0002A960FB6F894DEBF0FBECDBFDF91CF916B
:100EB0001F910F91FF90EF90DF90CF90BF90AF9078
:100EC0009F908F9008950E9477070C9476080E9457
:100ED0006F0858F00E94680840F029F45F3F29F03D
:100EE0000C944F0851110C94AA080C9455080E94B8
:100EF000870868F39923B1F3552391F3951B550B9C
:100F0000BB27AA2762177307840738F09F5F5F4FDC
:100F1000220F331F441FAA1FA9F335D00E2E3AF01B
:100F2000E0E832D091505040E695001CCAF72BD033
:100F3000FE2F29D0660F771F881FBB1F2617370784
:100F40004807AB07B0E809F0BB0B802DBF01FF27B6
:100F500093585F4F3AF09E3F510578F00C944F083C
:100F60000C94AA085F3FE4F3983ED4F386957795F6
:100F70006795B795F7959F5FC9F7880F911D96956F
:100F8000879597F90895E1E0660F771F881FBB1FCB
:100F9000621773078407BA0720F0621B730B840B78
:100FA000BA0BEE1F88F7E0950895BEE304D008F46D
:100FB00090E80895BFE322273327A9010E948F08F4
:100FC00060F19F5748F1B91740F1BFE3B91B99276A
:100FD000B8503AF4660F771F881F991FB395D2F364
:100FE00016C0B8504AF0232F342F452F562F672FA5
:100FF000782F8827B850BAF7B85F49F0869577956B
:1010000067955795479537952795BA95B9F716F48B
:101010000E94580888940895889460E070E0CB019D
:101020000895E894F92F96EBFF2381F0121613062A
:101030001406440B9395F695879577956795579584
:101040004040FF23B9F71BC099270895882351F426
:101050009850D2F7872B762F652F542F432F322F9E
:1010600020E0B1F3121613061406440B88233AF05D
:101070009A95440F551F661F771F881FCAF755237F
:101080004AF4440F551F11F460FF04C06F5F7F4F97
:101090008F4F9F4F880F9695879597F9089597F9E9
:1010A0009F6780E870E060E008959FEF80EC08950E
:1010B00090958095709560955095409530952195C7
:1010C0003F4F4F4F5F4F6F4F7F4F8F4F9F4F089551
:1010D00000240A9416161706180609060895002417
:1010E0000A9412161306140605060895092E039491
:1010F000000C11F4882352F0BB0F40F4BF2B11F405
:1011000060FF04C06F5F7F4F8F4F9F4F089557FD63
:101110009058440F551F59F05F3F71F04795880F65
:1011200097FB991F61F09F3F79F0879508951216FC
:1011300013061406551FF2CF4695F1DF08C01616A8
:1011400017061806991FF1CF869571056105089459
:101150000895E894BB2766277727CB0197F9089570
:10116000A1E21A2EAA1BBB1BFD010DC0AA1FBB1FAB
:10117000EE1FFF1FA217B307E407F50720F0A21B1D
:10118000B30BE40BF50B661F771F881F991F1A948A
:1011900069F760957095809590959B01AC01BD01B4
:1011A000CF010895EE0FFF1F0590F491E02D0994F3
:1011B0000E943B09A59F900DB49F900DA49F800DA8
:1011C000911D112408950F93083090F0982F872FC8
:1011D000762F652F542F432F322F22270850F4CF1C
:1011E000220F331F441F551F661F771F881F991F2B
:1011F0000A95B2F70F91089597FB10F8169400081E
:101200000F93083098F00850232F342F452F562F76
:10121000672F782F892F902DF4CF05949795879578
:101220007795679557954795379527950A95AAF726
:101230000F9108952A0D3B1D4C1D5D1D6E1D7F1DD8
:10124000801F911F08950024A7FD00942A0F301DD0
:10125000401D501D601D701D801D901D08950024AF
:10126000A7FD00942A17300540055005600570055C
:10127000800590050895A29FB001B39FC001A39F70
:10128000700D811D1124911DB29F700D811D1124BF
:08129000911D0895F894FFCFB1
:02129800010053
:00000001FF
