S017000043617253746174696344657369676E2E7372656335
S11300000C9432000C9444000C9444000C940E059F
S11300100C9444000C9444000C9444000C9444004C
S11300200C9444000C9444000C9444000C944F052C
S11300300C9444000C9444000C9444000C9444002C
S11300400C9444000C9444000C9444000C9444001C
S11300500C944400A904AD04B204B704BC04C10464
S1130060C604CB0411241FBECFE5D8E0DEBFCDBF4C
S113007020E0A0E6B0E001C01D92AF36B207E1F780
S11300800E942C010C946D070C9400000F931F9395
S1130090CF938330C0F5813019F0823071F01AC0EB
S11300A0E4E6F0E083E080838FEF82838CE1818358
S11300B081E080936100C1E00EC0E4E6F0E083E0FB
S11300C080838FEF828380EE818381E08093600060
S11300D0C1E001C0CFEF02E610E083E0F8018083C5
S11300E081E08183C8010E947C0284E690E00E9442
S11300F0AD0122E330E040E050E060E0F8018081AF
S11301000E94C30201C0CFEF8C2FCF911F910F919A
S11301100895833008F05CC0633008F05BC0813020
S113012019F0823059F158C0613021F0D8F06230B2
S113013069F054C04FEF64E083E00E941E0240E087
S113014068E083E00E941E0281E0089540E064E0DC
S113015083E00E941E024FEF68E083E00E941E02CB
S113016081E0089540E064E083E00E941E0240E0E4
S113017068E083E00E941E0281E00895613021F06E
S1130180D8F0623069F02CC04FEF60E483E00E9445
S11301901E0240E060E883E00E941E0281E00895B0
S11301A040E060E483E00E941E024FEF60E883E0D9
S11301B00E941E0281E0089540E060E483E00E9412
S11301C01E0240E060E883E00E941E0281E0089580
S11301D08FEF08958FEF08958FEF08958FEF0895AF
S11301E08FEF08958330D8F46536D8F4813019F050
S11301F0823059F018C022E330E040E050E08091B2
S113020062000E94C30281E0089522E330E040E0EE
S113021050E0809162000E94C30281E008958FEF54
S113022008958FEF08958FEF0895833088F4813017
S113023019F0823039F00EC0809162000E940C03E4
S113024081E00895809162000E940C0381E008958A
S11302508FEF08958FEF0895CF93DF9300D000D0F0
S113026000D0CDB7DEB782E089831A82789481E02A
S11302700E94460061E081E00E94890064E681E01A
S11302800E94F20082E00E94460061E082E00E9447
S1130290890064E682E00E94F20087B3806F87BB26
S11302A0889A8AB38FEF8ABBCE0101960E946705B4
S11302B0909A83EC99E00197F1F700C000009098C0
S11302C0AE014D5F5F4F62E089810E94BA058B8168
S11302D09C81AD81BE81880F991FAA1FBB1F880F07
S11302E0991FAA1FBB1FBC01CD01660F771F881F72
S11302F0991F0E949D0620E030E048ED51E40E94E1
S1130300FC050E946E066B837C838D839E836CBD8B
S113031088B39B819295907F8F70892B88BB8B814A
S11303209C81AD81BE810F97A105B10538F481E0B0
S11303300E94150182E00E94150108C062E381E079
S11303400E94F20062E381E00E94F20087EA91E6F3
S11303500197F1F700C00000A7CFFC0122813FEF15
S1130360320F3E3F08F45CC03081343008F05AC08C
S11303703130D1F028F0323059F13330E9F154C042
S1130380222319F02F3F49F051C02AB3FC01818187
S1130390809582238ABB81E008952AB3FC01818180
S11303A0822B8ABB81E00895222319F02F3F49F064
S11303B03FC027B3FC0181818095822387BB81E004
S11303C0089527B3FC018181822B87BB81E00895C6
S11303D0222319F02F3F49F02DC024B3FC01818161
S11303E08095822384BB81E0089524B3FC0181813C
S11303F0822B84BB81E00895222319F02F3F49F01A
S11304001BC021B3FC0181818095822381BB81E0E3
S1130410089521B3FC018181822B81BB81E0089581
S11304208FEF08958FEF08958FEF089581E0089579
S113043081E0089581E0089581E00895843008F012
S11304404DC09FEF940F9E3F08F44AC08130B1F035
S113045028F0823019F1833089F144C0442319F023
S11304604F3F39F041C08BB3609568236BBB81E08B
S113047008958BB3682B6BBB81E00895442319F076
S11304804F3F39F033C088B36095682368BB81E07F
S1130490089588B3682B68BB81E00895442319F05C
S11304A04F3F39F025C085B36095682365BB81E073
S11304B0089585B3682B65BB81E00895442319F042
S11304C04F3F39F017C082B36095682362BB81E067
S11304D0089582B3682B62BB81E008958FEF08957D
S11304E08FEF08958FEF089581E0089581E00895D6
S11304F081E0089581E00895FC0120812530B0F465
S11305000097D1F415C08EB59FB5806192609FBDF0
S11305108EBD8EB59FB5906A9FBD8EBD82E08093DF
S1130520670081B3806381BB81E008958FEF0895F4
S11305308FEF089581E008951FBC1EBC1DBC1CBC38
S11305401BBC1ABC19BC18BC17BC16BC29B72F7D20
S113055029BF29B72F7E29BF29B7277F29BF29B7EC
S11305602B7F29BF28B7206228BF28B7206128BF66
S113057028B7286028BF28B7246028BFFC018081E1
S1130580833009F2D7CFCF92DF92EF92FF92CF93CD
S1130590DF93D62F69017A019FE1C91AD108E108D6
S11305A0F10892E2C9169CE9D906E104F10420F4A9
S11305B0853020F0CFEF03C0CFEF01C0C1E083301E
S11305C0E1F4220F331F441F551F60E874E88EE1E5
S11305D090E00E942B071DBC1CBC37BD26BDAD2F6F
S11305E0B0E00E94530724E630E040E050E00E946F
S11305F02B073BBD2ABD39BD28BD8EB59FB52091C3
S11306006700822B9FBD8EBD8C2FDF91CF91FF9011
S1130610EF90DF90CF900895853060F58230B9F087
S113062028F4882341F0813059F026C08330B1F09A
S11306308430D9F021C083B7887F83BF81E00895D7
S11306408EB59FB5887F9FBD8EBD81E008958EB520
S11306509FB5887F9FBD8EBD81E008958EB59FB5FF
S1130660887F9FBD8EBD81E0089585B5887F85BD57
S113067081E008958FEF08958FEF0895FC01808144
S1130680813009F442C020F0823009F498C0CAC015
S113069013BE12BE89B78E7F89BF89B78D7F89BF8C
S11306A088B7816088BF8181813041F018F0823041
S11306B051F00EC083B783BF81E00BC083B787605E
S11306C083BF81E006C083B7866083BF81E001C039
S11306D08FEF9381943041F018F4933040F404C0C8
S11306E02AEF290F223018F490936A0001C08FEF8B
S11306F09281992319F0913021F096C099B799BF4E
S1130700089599B7916099BF08951FBC1EBC1DBC84
S11307101CBC1BBC1ABC19BC18BC17BC16BC89B7C2
S11307208F7D89BF89B78F7E89BF89B7877F89BF4E
S113073089B78B7F89BF88B7806288BF88B780619B
S113074088BF88B7886088BF88B7846088BF818184
S1130750813051F018F0823071F014C08EB59FB51D
S11307609FBD8EBD81E00FC08EB59FB587609FBDD4
S11307708EBD81E008C08EB59FB586609FBD8EBDDD
S113078081E001C08FEF9381943041F018F49330ED
S113079040F404C02AEF290F223018F49093690022
S11307A001C08FEF9281992319F0913021F00895BF
S11307B099B799BF089599B7946099BF089515BCE6
S11307C014BC89B78F7B89BF89B78F7789BF88B7F6
S11307D0806488BF82B5877F82BD8181882319F0B8
S11307E0813031F00AC082B5877F82BD81E006C0C6
S11307F082B5886082BD81E001C08FEF938198301B
S113080018F49093680001C08FEF9281992319F036
S1130810913021F0089599B799BF089599B79064DC
S113082099BF089581E008958FEF08958130D1F143
S113083020F0823009F478C0B3C06F3F710511F025
S113084008F0B0C062BF80916A008230B9F028F429
S1130850882359F0813069F0A7C08630C9F0873009
S1130860E1F0843009F0A0C00EC083B783BF81E0FB
S1130870089583B7816083BF81E0089583B7826060
S113088083BF81E0089583B7836083BF81E00895C7
S113089083B7846083BF81E0089583B7856083BF95
S11308A081E008957DBD6CBD8EB59FB5887F9FBDE9
S11308B08EBD809169008230D9F028F4882359F0E4
S11308C0813079F073C0863009F1873031F184309A
S11308D009F06CC014C08EB59FB59FBD8EBD81E07C
S11308E008958EB59FB581609FBD8EBD81E008954A
S11308F08EB59FB582609FBD8EBD81E008958EB593
S11309009FB583609FBD8EBD81E008958EB59FB570
S113091084609FBD8EBD81E008958EB59FB58560CE
S11309209FBD8EBD81E008956F3F710511F008F001
S11309303FC064BD85B5887F85BDE09168008E2F7A
S113094090E088309105B0F5FC01E65DFF4F0C9412
S11309504D0785B585BD81E0089585B5816085BD68
S113096081E0089585B5826085BD81E0089585B5EF
S1130970836085BD81E0089585B5846085BD81E08F
S1130980089585B5856085BD81E0089585B5866047
S113099085BD81E0089585B5876085BD81E00895B2
S11309A081E008958FEF08958FEF08958FEF0895F4
S11309B08FEF08958FEF0895813029F080F0823011
S11309C049F08FEF08958EB59FB5887F9FBD8EBD8A
S11309D081E0089585B5887F85BD81E0089581E033
S11309E00895813059F018F0823079F015C082B73B
S11309F090E0FB019183808381E008958CB59DB5DF
S1130A00FB019183808381E0089584B590E0FB012C
S1130A109183808381E008958FEF089578941F92E5
S1130A200F920FB60F9211242F933F934F935F931E
S1130A306F937F938F939F93AF93BF93EF93FF93A2
S1130A408BB380958BBB80916C0080FF0CC080E0E1
S1130A500E94DC0410926C0081E080936B0084B7E8
S1130A60806484BF0BC060E070E080E00E941604E4
S1130A7081E080936C0084B78F7B84BFFF91EF91FA
S1130A80BF91AF919F918F917F916F915F914F91A2
S1130A903F912F910F900FBE0F901F90189578944F
S1130AA01F920F920FB60F9211248F939F938091F0
S1130AB06D0090916E00019690936E0080936D008E
S1130AC09F918F910F900FBE0F901F9018950F93C9
S1130AD01F93CF93DF9300D000D000D0CDB7DEB703
S1130AE00097C1F1FC0120812330B0F5318133300E
S1130AF0A8F58C012230B1F48BB78F7D8BBF84B7FE
S1130B00806484BF8AB780628ABF8BB780628BBFE0
S1130B101B8281E0898384E08A83CE0101960E944E
S1130B20AD017894F801818181110AC019821A8279
S1130B3081E08B8386E08C83CE0101960E943E0384
S1130B4010926E0010926D0010926C0010926B0067
S1130B5081E005C08FEF03C08FEF01C08FEF2696B1
S1130B600FB6F894DEBF0FBECDBFDF91CF911F91BA
S1130B700F9108950F931F93CF93DF9300D0CDB7B8
S1130B80DEB7833068F5633068F54115510561F1CE
S1130B9080916B008823E1F38A01BE016F5F7F4F70
S1130BA080E00E94F10480916D0090916E00A0E0BD
S1130BB0B0E0BA2FA92F982F882729813A81820F74
S1130BC0931FA11DB11DF80180839183A283B38378
S1130BD010926E0010926D0010926B0081E005C0BF
S1130BE08FEF03C08FEF01C08FEF0F900F90DF9155
S1130BF0CF911F910F9108950E9410060C94F10655
S1130C000E94EA0658F00E94E30640F029F45F3F90
S1130C1029F00C94DA0651110C9425070C94E00683
S1130C200E94020768F39923B1F3552391F3951BAE
S1130C30550BBB27AA2762177307840738F09F5FF9
S1130C405F4F220F331F441FAA1FA9F335D00E2E66
S1130C503AF0E0E832D091505040E695001CCAF7D3
S1130C602BD0FE2F29D0660F771F881FBB1F261796
S1130C7037074807AB07B0E809F0BB0B802DBF016D
S1130C80FF2793585F4F3AF09E3F510578F00C943C
S1130C90DA060C9425075F3FE4F3983ED4F3869577
S1130CA077956795B795F7959F5FC9F7880F911D5D
S1130CB09695879597F90895E1E0660F771F881F49
S1130CC0BB1F621773078407BA0720F0621B730BFC
S1130CD0840BBA0BEE1F88F7E09508950E940A076B
S1130CE088F09F5798F0B92F9927B751B0F0E1F0E9
S1130CF0660F771F881F991F1AF0BA95C9F714C099
S1130D00B13091F00E942407B1E008950C942407B7
S1130D10672F782F8827B85F39F0B93FCCF38695D1
S1130D2077956795B395D9F73EF49095809570952E
S1130D3061957F4F8F4F9F4F0895E89409C097FBAB
S1130D403EF490958095709561957F4F8F4F9F4F9E
S1130D509923A9F0F92F96E9BB279395F6958795E2
S1130D6077956795B795F111F8CFFAF4BB0F11F4A5
S1130D7060FF1BC06F5F7F4F8F4F9F4F16C088234C
S1130D8011F096E911C0772321F09EE8872F762F82
S1130D9005C0662371F096E8862F70E060E02AF0C3
S1130DA09A95660F771F881FDAF7880F96958795AF
S1130DB097F9089597F99F6780E870E060E00895D7
S1130DC09FEF80EC089500240A941616170618065F
S1130DD00906089500240A9412161306140605063B
S1130DE00895092E0394000C11F4882352F0BB0FCC
S1130DF040F4BF2B11F460FF04C06F5F7F4F8F4F2F
S1130E009F4F089557FD9058440F551F59F05F3F69
S1130E1071F04795880F97FB991F61F09F3F79F018
S1130E2087950895121613061406551FF2CF46959A
S1130E30F1DF08C0161617061806991FF1CF86951C
S1130E407105610508940895E894BB276627772700
S1130E50CB0197F90895A1E21A2EAA1BBB1BFD0131
S1130E600DC0AA1FBB1FEE1FFF1FA217B307E40785
S1130E70F50720F0A21BB30BE40BF50B661F771FDD
S1130E80881F991F1A9469F76095709580959095BD
S1130E909B01AC01BD01CF010895EE0FFF1F05902A
S1130EA0F491E02D09940E945E07A59F900DB49FD4
S1130EB0900DA49F800D911D11240895A29FB0014F
S1130EC0B39FC001A39F700D811D1124911DB29F7A
S1110ED0700D811D1124911D0895F894FFCF1B
S9030000FC
