:100000000C9432000C944F000C944F000C94140389
:100010000C944F000C9459030C944F000C944F0017
:100020000C944F000C944F000C944F000C944F0014
:100030000C944F000C944F000C944F000C944F0004
:100040000C944F000C944F000C944F000C944F00F4
:100050000C944F00C802CC02D102D602DB02E002AF
:10006000E502EA0211241FBECFE5D8E0DEBFCDBF16
:1000700011E0A0E6B0E0E2E1F0E102C005900D92EF
:10008000AC32B107D9F721E0ACE2B1E001C01D927A
:10009000AB33B207E1F70E948D000C9407080C9473
:1000A00000000F931F93CF93DF9300D000D01F92D7
:1000B000CDB7DEB782E089838A83CE0101960E94A4
:1000C0007103182F83E08B8301E00C838FEF8D8306
:1000D000CE0103960E9492008123182F11700B838A
:1000E00084E08C831D82CE0103960E9492008123BE
:1000F0000F900F900F900F900F90DF91CF911F9165
:100100000F9108954FEF61E083E00E94030140E00A
:1001100061E083E00E94030108950E94EA0480E008
:1001200090E00895FC0122813FEF320F3E3F08F43A
:100130005CC03081343008F05AC03130D1F028F042
:10014000323059F13330E9F154C0222319F02F3FF6
:1001500049F051C02AB3FC018181809582238ABB7A
:1001600081E008952AB3FC018181822B8ABB81E062
:100170000895222319F02F3F49F03FC027B3FC0117
:1001800081818095822387BB81E0089527B3FC019C
:100190008181822B87BB81E00895222319F02F3FB4
:1001A00049F02DC024B3FC0181818095822384BB5A
:1001B00081E0089524B3FC018181822B84BB81E01E
:1001C0000895222319F02F3F49F01BC021B3FC01F1
:1001D00081818095822381BB81E0089521B3FC0158
:1001E0008181822B81BB81E0089580E0089580E0C9
:1001F000089580E0089581E0089581E0089581E008
:10020000089581E00895843008F04DC09FEF940F69
:100210009E3F08F44AC08130B1F028F0823019F1D5
:10022000833089F144C0442319F04F3F39F041C075
:100230008BB3609568236BBB81E008958BB3682B0B
:100240006BBB81E00895442319F04F3F39F033C070
:1002500088B36095682368BB81E0089588B3682BF4
:1002600068BB81E00895442319F04F3F39F025C061
:1002700085B36095682365BB81E0089585B3682BDD
:1002800065BB81E00895442319F04F3F39F017C052
:1002900082B36095682362BB81E0089582B3682BC6
:1002A00062BB81E0089580E0089580E0089580E0D9
:1002B000089581E0089581E0089581E0089581E046
:1002C0000895FC018081813009F442C020F0823021
:1002D00009F498C0CAC013BE12BE89B78E7F89BF09
:1002E00089B78D7F89BF88B7816088BF8181813060
:1002F00041F018F0823051F00EC083B783BF81E027
:100300000BC083B7876083BF81E006C083B7866078
:1003100083BF81E001C080E09381943041F018F404
:10032000933040F404C02AEF290F223018F4909340
:100330002E0101C080E09281992319F0913021F0C3
:1003400096C099B799BF089599B7916099BF0895DC
:100350001FBC1EBC1DBC1CBC1BBC1ABC19BC18BCE1
:1003600017BC16BC89B78F7D89BF89B78F7E89BFBF
:1003700089B7877F89BF89B78B7F89BF88B780623C
:1003800088BF88B7806188BF88B7886088BF88B712
:10039000846088BF8181813051F018F0823071F023
:1003A00014C08EB59FB59FBD8EBD81E00FC08EB5C8
:1003B0009FB587609FBD8EBD81E008C08EB59FB59B
:1003C00086609FBD8EBD81E001C080E09381943046
:1003D00041F018F4933040F404C02AEF290F223082
:1003E00018F490932D0101C080E09281992319F0B7
:1003F000913021F0089599B799BF089599B7946005
:1004000099BF089515BC14BC89B78F7B89BF89B784
:100410008F7789BF88B7806488BF82B5877F82BDA8
:100420008181882319F0813031F00AC082B5877F3D
:1004300082BD81E006C082B5886082BD81E001C0D6
:1004400080E09381983018F490932C0101C080E0F3
:100450009281992319F0913021F0089599B799BFAD
:10046000089599B7906499BF089581E0089580E058
:1004700008958130D1F120F0823009F478C0AFC006
:100480006F3F710511F008F0ACC062BF80912E0182
:100490008230B9F028F4882359F0813069F0A3C084
:1004A0008630C9F08730E1F0843009F09CC00EC07E
:1004B00083B783BF81E0089583B7816083BF81E004
:1004C000089583B7826083BF81E0089583B7836016
:1004D00083BF81E0089583B7846083BF81E008957E
:1004E00083B7856083BF81E008957DBD6CBD8EB507
:1004F0009FB5887F9FBD8EBD80912D018230D9F040
:1005000028F4882359F0813079F06FC0863009F1E2
:10051000873031F1843009F068C014C08EB59FB5C2
:100520009FBD8EBD81E008958EB59FB581609FBD52
:100530008EBD81E008958EB59FB582609FBD8EBD52
:1005400081E008958EB59FB583609FBD8EBD81E02B
:1005500008958EB59FB584609FBD8EBD81E00895DE
:100560008EB59FB585609FBD8EBD81E008956F3FBC
:10057000710509F0E0F564BDE0912C018E2F90E04B
:1005800088309105B0F5FC01E65DFF4F0C94F30453
:1005900085B585BD81E0089585B5816085BD81E023
:1005A000089585B5826085BD81E0089585B5836035
:1005B00085BD81E0089585B5846085BD81E008959D
:1005C00085B5856085BD81E0089585B5866085BD6A
:1005D00081E0089585B5876085BD81E0089581E05B
:1005E000089580E0089580E0089580E0089580E017
:1005F000089580E00895813049F018F0823069F064
:1006000011C083B7887F83BF81E008958EB59FB501
:10061000887F9FBD8EBD81E0089585B5887F85BDAB
:1006200081E0089580E0089578941F920F920FB6AC
:100630000F9211242F933F934F935F936F937F9368
:100640008F939F93AF93BF93EF93FF938FEF8ABBEB
:1006500060E070E082E00E9439028091300180FF0A
:100660000CC082E00E94FB021092300181E0809376
:100670002F0184B7806484BF0BC060E070E082E02B
:100680000E94390281E08093300184B78F7B84BF60
:10069000FF91EF91BF91AF919F918F917F916F915A
:1006A0005F914F913F912F910F900FBE0F901F9030
:1006B000189578941F920F920FB60F9211248F9372
:1006C0009F93809131019091320101969093320174
:1006D000809331019F918F910F900FBE0F901F90CB
:1006E00018950F931F93CF93DF9300D000D000D0C5
:1006F000CDB7DEB7009709F448C0FC012081233054
:1007000008F045C03181333008F043C08C012230FD
:10071000B1F48BB78F7D8BBF84B7806484BF8AB7F9
:1007200080628ABF8BB780628BBF1B8281E0898326
:1007300084E08A83CE0101960E9492007894F801A9
:100740008181882319F0823061F015C019821A82E4
:1007500081E08B8386E08C83CE0101960E9461014B
:100760000AC082E089831A8291E09B838C83CE0148
:1007700001960E9461011092320110923101109293
:10078000300110922F0181E005C080E003C080E0BD
:1007900001C080E026960FB6F894DEBF0FBECDBF35
:1007A000DF91CF911F910F9108954F925F926F92B9
:1007B0007F928F929F92AF92BF92CF92DF92EF92F1
:1007C000FF920F931F93CF93DF9380E690E00E94F8
:1007D0000F050F2EF9E28F2EF1E09F2EF02D740100
:1007E000C0E00F2EF3EACF2EF0E0DF2EF02D0F2E1B
:1007F000FDE8AF2EF0E0BF2EF02D612C712C4424CB
:100800004394512C3EC0F701808180933401F8015C
:1008100081918F01809333010E94510090E02091DB
:100820003401222359F0542D452D209133012111FB
:1008300002C0562D472D252F342F02C0262D372DCF
:100840002817390759F41F92CF93BF92AF920E9495
:10085000F9040F900F900F900F900AC01F92CF9342
:10086000DF92CF920E94F9040F900F900F900F909B
:10087000CF5FCD13C8CFFFEFEF1AFF0ACD2FD430D3
:1008800021F0D2E0DC0F8401BECFDF91CF911F9128
:100890000F91FF90EF90DF90CF90BF90AF909F901F
:1008A0008F907F906F905F904F90089589EB90E0CC
:1008B0000E940F0581E080933401809333010E94F0
:1008C0008200882369F01F921F9283EA90E09F9331
:1008D0008F930E94F9040F900F900F900F900CC00F
:1008E0001F921F928DE890E09F938F930E94F904CE
:1008F0000F900F900F900F9081E080933401109231
:1009000033010E94820081110EC01F9281E08F93FB
:100910008DE890E09F938F930E94F9040F900F90C1
:100920000F900F900DC01F9281E08F9383EA90E0AB
:100930009F938F930E94F9040F900F900F900F9048
:100940001092340181E0809333010E948200811172
:100950001DC02AC01F9283E08F938DE890E09F9383
:100960008F930E94F9040F900F900F900F900895AD
:100970001F9283E08F9383EA90E09F938F930E946E
:10098000F9040F900F900F900F9008951F9282E03E
:100990008F9383EA90E09F938F930E94F9040F90C6
:1009A0000F900F900F900DC01F9282E08F938DE8F3
:1009B00090E09F938F930E94F9040F900F900F90F7
:1009C0000F9010923401109233010E948200811125
:1009D000CFCFC0CF86EE90E00E940F050E94D503D6
:1009E0000E9456040895EE0FFF1F0590F491E02D2C
:1009F0000994A0E0B0E0EFEFF4E00C94E007AE0162
:100A00004B5F5F4FFA0161917191AF0180913701A6
:100A1000909138010E943F05E2E00C94FC070F938F
:100A20001F93CF93DF93E0913701F0913801238139
:100A300021FF1BC08C01D0E0C0E0F80181918F0143
:100A40006091370170913801DB011896ED91FC91AE
:100A50001997882331F00995892B79F3DFEFCFEFD0
:100A6000ECCF8AE00995892B19F08FEF9FEF02C038
:100A70008D2F9C2FDF91CF911F910F910895ABE0A7
:100A8000B0E0E5E4F5E00C94D0076C017B018A014D
:100A9000FC0117821682838181FFCCC1CE010196B1
:100AA0003C01F6019381F70193FD859193FF8191BC
:100AB0007F01882309F4BAC1853239F493FD859109
:100AC00093FF81917F01853229F4B60190E00E9465
:100AD0003607E7CF912C212C312CFFE1F315D8F00C
:100AE0008B3279F038F4803279F08332A1F4232DFF
:100AF00020611DC08D3261F0803369F4232D2160A7
:100B000016C0832D8260382EE32DE4603E2E2AC06D
:100B1000F32DF8601DC037FC2DC020ED280F2A30C2
:100B200040F08E32B9F436FC81C1232D2064322E80
:100B300019C036FE06C08AE0989E200D1124922E20
:100B400011C0EAE02E9E200D1124222EF32DF0621A
:100B50003F2E08C08C3621F4832D8068382E02C0C9
:100B6000883641F4F70193FD859193FF81917F01D0
:100B70008111B3CF982F9F7D9554933028F40C5F4B
:100B80001F4F9FE399830DC0833631F0833771F097
:100B9000833509F059C021C0F801808189830E5F37
:100BA0001F4F88248394912C530113C02801F2E035
:100BB0004F0E511CF801A080B18036FE03C0692D94
:100BC00070E002C06FEF7FEFC5010E942B074C0160
:100BD0008201F32DFF773F2E16C0280122E0420E3E
:100BE000511CF801A080B18036FE03C0692D70E071
:100BF00002C06FEF7FEFC5010E9420074C01F32D6B
:100C0000F0683F2E820133FC1BC0822D90E08816D5
:100C10009906B0F4B60180E290E00E9436072A946B
:100C2000F4CFF50137FC859137FE81915F01B60164
:100C300090E00E94360721102A9421E0821A910840
:100C40008114910471F7E8C0843611F0893641F5BA
:100C5000F80137FE07C060817181828193810C5F4A
:100C60001F4F08C060817181072E000C880B990B03
:100C70000E5F1F4FF32DFF763F2E97FF09C0909513
:100C80008095709561957F4F8F4F9F4FF0683F2EF5
:100C90002AE030E0A3010E947207882E861845C022
:100CA000853731F4232D2F7EB22E2AE030E025C087
:100CB000932D997FB92E8F36C1F018F4883579F0CD
:100CC000B5C0803719F0883721F0B0C0E92FE06156
:100CD000BE2EB4FE0DC0FB2DF460BF2E09C034FE45
:100CE0000AC0292F2660B22E06C028E030E005C0D9
:100CF00020E130E002C020E132E0F801B7FE07C099
:100D000060817181828193810C5F1F4F06C0608179
:100D1000718180E090E00E5F1F4FA3010E94720777
:100D2000882E8618FB2DFF773F2E36FE0DC0232D13
:100D30002E7FA22E891458F434FE0BC032FC09C059
:100D4000832D8E7EA82E05C0B82CA32C03C0B82CF2
:100D500001C0B92CA4FE0FC0FE01E80DF11D808179
:100D6000803321F49A2D997EA92E09C0A2FE06C0D7
:100D7000B394B39404C08A2D867809F0B394A3FC8D
:100D800011C0A0FE06C0B21488F4280C922C9B1847
:100D90000EC0B21460F4B60180E290E00E94360703
:100DA000B394F7CFB21418F42B1802C0982C212C4E
:100DB000A4FE10C0B60180E390E00E943607A2FEB8
:100DC00017C0A1FC03C088E790E002C088E590E06E
:100DD000B6010CC08A2D867859F0A1FE02C08BE2C4
:100DE00001C080E2A7FC8DE2B60190E00E943607C8
:100DF000891438F4B60180E390E00E9436079A9493
:100E0000F7CF8A94F301E80DF11D8081B60190E0DF
:100E10000E9436078110F5CF222009F442CEB60198
:100E200080E290E00E9436072A94F6CFF601868190
:100E3000978102C08FEF9FEF2B96E2E10C94EC07B5
:100E4000FC010590615070400110D8F78095909595
:100E50008E0F9F1F0895FC0161507040019001109A
:100E6000D8F7809590958E0F9F1F08950F931F932D
:100E7000CF93DF93FB01238121FD03C08FEF9FEF11
:100E80002CC022FF16C0468157812481358142172C
:100E9000530744F4A081B1819D012F5F3F4F3183FF
:100EA00020838C93268137812F5F3F4F37832683A2
:100EB00014C08B01EC01FB010084F185E02D099544
:100EC000892BE1F6D80116968D919C911797019682
:100ED00017969C938E931697CE01DF91CF911F9119
:100EE0000F910895FA01AA27283051F1203181F19C
:100EF000E8946F936E7F6E5F7F4F8F4F9F4FAF4F22
:100F0000B1E03ED0B4E03CD0670F781F891F9A1F34
:100F1000A11D680F791F8A1F911DA11D6A0F711DE8
:100F2000811D911DA11D20D009F468943F912AE0F4
:100F3000269F11243019305D3193DEF6CF010895DC
:100F4000462F4770405D4193B3E00FD0C9F7F6CF0D
:100F5000462F4F70405D4A3318F0495D31FD4052D5
:100F6000419302D0A9F7EACFB4E0A695979587956B
:100F700077956795BA95C9F700976105710508954A
:100F80009B01AC010A2E06945795479537952795F6
:100F9000BA95C9F7620F731F841F951FA01D08958E
:100FA0002F923F924F925F926F927F928F929F9279
:100FB000AF92BF92CF92DF92EF92FF920F931F9367
:100FC000CF93DF93CDB7DEB7CA1BDB0B0FB6F89418
:100FD000DEBF0FBECDBF09942A88398848885F8458
:100FE0006E847D848C849B84AA84B984C884DF80C9
:100FF000EE80FD800C811B81AA81B981CE0FD11DAD
:101000000FB6F894DEBF0FBECDBFED010895F89482
:02101000FFCF10
:1010120009092D2D2D2D2D2D2D2D2D2D2D2D2D2D46
:101022002D2D2D55735F496E69745F544553542DB0
:101032002D2D2D2D2D2D2D2D2D2D2D2D0074657346
:101042007443617365202564202050617373656465
:101052002E0A007465737443617365202564202031
:101062004661696C65642E0A0009092D2D2D2D2D0E
:101072002D2D2D2D2D2D2D2D2D2D2D2D55735F54D7
:101082007269676765725F544553542D2D2D2D2D5E
:101092002D2D2D2D2D000A0A093D3D3D3D3D3D3DA5
:1010A2003D3D3D3D3D3D3D3D3D3D3D3D3D3D3D3D6E
:1010B2003D3D55735F4D6F64756C655F5445535488
:1010C2003D3D3D3D3D3D3D3D3D3D3D3D3D3D3D3D4E
:0C10D2003D3D3D3D3D3D3D0A000100005C
:00000001FF
