:100000000C9432000C944F000C944F000C94E702B7
:100010000C944F000C942B030C944F000C944F0045
:100020000C944F000C944F000C944F000C944F0014
:100030000C944F000C944F000C944F000C944F0004
:100040000C944F000C944F000C944F000C944F00F4
:100050000C944F00B902AC02AE02B002B202B4027C
:10006000B602B80211241FBECFE5D8E0DEBFCDBF77
:1000700011E0A0E6B0E0EEE8F3E102C005900D92D9
:10008000A036B107D9F721E0A0E6B1E001C01D928A
:10009000A137B207E1F70E94E8000C94C5090C945F
:1000A00000000F931F93CF93DF9300D000D01F92D7
:1000B000CDB7DEB782E08C838D83CE0104960E949B
:1000C0004303182F83E0898301E00A838FEF8B833A
:1000D000CE0101960E94ED008123182F1170098333
:1000E00084E08A831B82CE0101960E94ED00812369
:1000F0000F900F900F900F900F90DF91CF911F9165
:100100000F910895CF934FEF61E083E00E94390192
:10011000C82F8FE39CE90197F1F700C0000040E091
:1001200061E083E00E9439018C238170CF910895B2
:10013000EF92FF920F931F93CF93DF93CDB7DEB76C
:1001400028970FB6F894DEBF0FBECDBF19821A8272
:100150001B821C821D821E821F821886009749F115
:100160007C01AE014F5F5F4F62E082E00E949A0324
:10017000182F117029813A814B815C816D817E81BC
:100180008F81988501E00E9492060E94D20520E0AE
:1001900030E048E652E40E9424050E949B05F701E6
:1001A000208331834283538364837583868397835B
:1001B00001C010E0812F28960FB6F894DEBF0FBE65
:1001C000CDBFDF91CF911F910F91FF90EF900895D8
:1001D0000E941A0580E090E00895FC0182819FEF63
:1001E000980F9E3F08F441C090819430F0F5923012
:1001F00001F1933061F1913071F0882331F08F3F3C
:10020000B1F59AB38181892B04C09AB3818180951D
:1002100089238ABB2CC0882331F08F3F41F597B3E7
:100220008181892B04C097B381818095892387BB05
:100230001EC0882331F08F3FD1F494B38181892B84
:1002400004C094B381818095892384BB10C0882326
:1002500031F08F3F61F491B38181892B04C091B358
:1002600081818095892381BB02C080E0089581E06F
:1002700008958430D0F59FEF940F9E3FB0F1823007
:10028000E1F0833031F1813061F0442329F04F3FB8
:1002900071F58BB3682B03C08BB3609568236BBB80
:1002A00026C0442329F04F3F11F588B3682B03C0C3
:1002B00088B36095682368BB1AC0442329F04F3F78
:1002C000B1F485B3682B03C085B36095682365BB23
:1002D0000EC0442329F04F3F51F482B3682B03C072
:1002E00082B36095682362BB02C080E0089581E01C
:1002F0000895FC0180818130D1F120F0823009F431
:1003000086C0B3C013BE12BE89B78E7F89BF89B7BE
:100310008D7F89BF88B7816088BF8181813041F03E
:1003200028F0823051F483B7866004C083B702C0DE
:1003300083B7876083BF81E001C080E09381943000
:1003400041F018F4933040F404C02AEF290F223012
:1003500018F49093620101C080E09281992309F41E
:100360007FC0913009F083C099B791604EC01FBC27
:100370001EBC1DBC1CBC1BBC1ABC19BC18BC17BCC9
:1003800016BC89B78F7D89BF89B78F7E89BF89B732
:10039000877F89BF89B78B7F89BF88B7806288BF15
:1003A00088B7806188BF88B7886088BF88B7846055
:1003B00088BF8181813051F030F0823071F48EB588
:1003C0009FB5866006C08EB59FB503C08EB59FB53C
:1003D00087609FBD8EBD81E001C080E09381943035
:1003E00041F018F4933040F404C02AEF290F223072
:1003F00018F49093610101C080E09281992381F10A
:10040000913009F0089599B7946099BF089515BC8B
:1004100014BC89B78F7B89BF89B78F7789BF88B7AD
:10042000806488BF82B5877F82BD8181882329F05F
:10043000813041F482B5886002C082B5877F82BD79
:1004400081E001C080E09381983018F490936001BE
:1004500001C080E09281992319F0913019F008953C
:1004600099B7D3CF99B79064D0CF81E0089580E059
:100470000895813079F120F0823009F45BC028C002
:100480006F3F710511F008F076C062BF8091620184
:100490008230A9F040F4882381F0813009F06BC0EC
:1004A00083B7816014C0863069F0873071F0843082
:1004B00009F061C083B783600AC083B708C083B7FF
:1004C000826005C083B7846002C083B7856083BF44
:1004D00081E008957DBD6CBD8EB59FB5887F9FBDC1
:1004E0008EBD809161018230B9F048F4882389F093
:1004F000813009F040C08EB59FB5816018C086304C
:1005000079F0873089F08430B1F58EB59FB583607E
:100510000EC08EB59FB50BC08EB59FB5826007C06B
:100520008EB59FB5846003C08EB59FB585609FBDB5
:100530008EBDCECF6F3F710509F0E8F464BDE09148
:1005400060018E2F90E088309105A8F4FC01E65DF3
:10055000FF4F85B50C94710681600BC0826009C0A5
:10056000836007C0846005C0856003C0866001C0E9
:10057000876085BDADCF80E00895813059F030F0BF
:10058000823079F485B5887F85BD09C083B7887FBF
:1005900083BF05C08EB59FB5887F9FBD8EBD81E0AE
:1005A000089580E00895FB01813039F020F0823019
:1005B00061F484B505C082B703C08CB59DB501C098
:1005C00090E09183808381E0089580E0089578949D
:1005D0001F920F920FB60F9211242F933F934F93B8
:1005E0005F936F937F938F939F93AF93BF93EF939B
:1005F000FF938FEF8ABB60E070E082E00E943902D7
:100600008091640180FF0BC082E00E94BD021092C5
:10061000640181E08093630184B780640AC060E074
:1006200070E082E00E94390281E08093640184B727
:100630008F7B84BFFF91EF91BF91AF919F918F917D
:100640007F916F915F914F913F912F910F900FBECE
:100650000F901F90189578941F920F920FB60F92DB
:1006600011248F939F93809165019091660101966B
:1006700090936601809365019F918F910F900FBEBB
:100680000F901F9018950F931F93CF93DF9300D077
:1006900000D000D0CDB7DEB7009709F43FC0FC0111
:1006A00020812330D8F531813330C0F58C012230E0
:1006B000B1F48BB78F7D8BBF84B7806484BF8AB75A
:1006C00080628ABF8BB780628BBF1B8281E0898387
:1006D00084E08A83CE0101960E94ED007894F801AF
:1006E0008181882339F0823079F489831A8291E0FC
:1006F0009B8305C019821A8281E08B8386E08C83FC
:10070000CE0101960E947901109266011092650156
:10071000109264011092630181E001C080E026968E
:100720000FB6F894DEBF0FBECDBFDF91CF911F9102
:100730000F9108958F929F92AF92BF92CF92DF92C6
:10074000EF92FF920F931F93CF93DF93CDB7DEB756
:100750002A970FB6F894DEBF0FBECDBF8330E8F501
:100760006330D8F541155105C1F1809163018823AB
:10077000E1F34A01BE016F5F7F4F82E00E94D30226
:10078000A0906501B0906601C12CD12C9501A60105
:1007900060E070E080E090E008E00E947706E98188
:1007A000FA815F01C12CD12CE12CF12C00E010E08A
:1007B0000E94AE06F4012083318342835383648315
:1007C000758386839783109266011092650110925B
:1007D00064011092630181E001C080E02A960FB6A7
:1007E000F894DEBF0FBECDBFDF91CF911F910F9167
:1007F000FF90EF90DF90CF90BF90AF909F908F9041
:1008000008959F92AF92BF92CF92DF92EF92FF92A4
:100810000F931F93CF93DF9380E690E00E94CD0665
:100820000DE511E0D0E093EAC92E90E0D92E2DE835
:10083000A22E20E0B22E8DE5E82E81E0F82EC0E059
:100840009C2E9D0EF801808180936A01F7018191B1
:100850007F01809369010E94510090E020916A011C
:10086000222351F051E040E020916901211101C0A3
:1008700050E0252F342F02C020E030E02817390740
:1008800029F41F929F92BF92AF9204C01F929F9231
:10089000DF92CF920E94B7060F900F900F900F90AB
:1008A000CF5FC23069F6DE5F0F5F1F4FD43019F69D
:1008B000DF91CF911F910F91FF90EF90DF90CF903C
:1008C000BF90AF909F90089589EB90E00E94CD0675
:1008D00081E0809367010E948200909167018917EF
:1008E00029F01F921F9283EA90E004C01F921F928A
:1008F0008DE890E09F938F930E94B7060F900F9022
:100900000F900F90109267010E94820090916701F2
:10091000891731F01F9281E08F9383EA90E005C040
:100920001F9281E08F938DE890E09F938F930E94B8
:10093000B7060F900F900F900F9008956F927F92CF
:100940008F929F92AF92BF92CF92DF92EF92FF92DF
:100950000F931F93CF93DF93CDB7DEB72C970FB6CE
:10096000F894DEBF0FBECDBFCE0101969A8789876E
:100970001C861B8686EE90E00E94CD068DE5E82E53
:1009800081E0F82E10E093EAA92E90E0B92E2DE830
:10099000822E20E0922E6E0189E0C80ED11C02E06A
:1009A000010FF701808180936801F60161907190D9
:1009B0006F01C3010E94980090E0209168012223FA
:1009C00041F051E040E0672809F450E0252F342F32
:1009D00002C020E030E02817390729F41F921F9346
:1009E0009F928F9204C01F921F93BF92AF920E945A
:1009F000B7060F900F900F900F901F5F1013D1CF7D
:100A0000FFEFEF1AFF0A143031F62C960FB6F89468
:100A1000DEBF0FBECDBFDF91CF911F910F91FF9031
:100A2000EF90DF90CF90BF90AF909F908F907F908E
:100A30006F9008958AE191E00E94CD060E94010422
:100A40000E9464040C949E040E9438050C9437069E
:100A50000E94300658F00E94290640F029F45F3FBA
:100A600029F00C94100651110C946B060C94160688
:100A70000E94480668F39923B1F3552391F3951B1F
:100A8000550BBB27AA2762177307840738F09F5FAF
:100A90005F4F220F331F441FAA1FA9F335D00E2E1C
:100AA0003AF0E0E832D091505040E695001CCAF789
:100AB0002BD0FE2F29D0660F771F881FBB1F26174C
:100AC00037074807AB07B0E809F0BB0B802DBF0123
:100AD000FF2793585F4F3AF09E3F510578F00C94F2
:100AE00010060C946B065F3FE4F3983ED4F38695B2
:100AF00077956795B795F7959F5FC9F7880F911D13
:100B00009695879597F90895E1E0660F771F881FFE
:100B1000BB1F621773078407BA0720F0621B730BB1
:100B2000840BBA0BEE1F88F7E0950895BEE304D05E
:100B300008F490E80895BFE322273327A9010E9413
:100B4000500660F19F5748F1B91740F1BFE3B91B58
:100B50009927B8503AF4660F771F881F991FB395ED
:100B6000D2F316C0B8504AF0232F342F452F562FFA
:100B7000672F782F8827B850BAF7B85F49F0869565
:100B8000779567955795479537952795BA95B9F70E
:100B900016F40E94190688940895889460E070E025
:100BA000CB010895E894F92F96EBFF2381F01216FC
:100BB00013061406440B9395F695879577956795DC
:100BC00057954040FF23B9F71BC099270895882304
:100BD00051F49850D2F7872B762F652F542F432F3F
:100BE000322F20E0B1F3121613061406440B8823AB
:100BF0003AF09A95440F551F661F771F881FCAF752
:100C000055234AF4440F551F11F460FF04C06F5F71
:100C10007F4F8F4F9F4F880F9695879597F908952F
:100C200097F99F6780E870E060E008959FEF80EC9F
:100C30000895909580957095609550954095309564
:100C400021953F4F4F4F5F4F6F4F7F4F8F4F9F4FBC
:100C5000089500240A941616170618060906089522
:100C600000240A9412161306140605060895092E88
:100C70000394000C11F4882352F0BB0F40F4BF2BF7
:100C800011F460FF04C06F5F7F4F8F4F9F4F089537
:100C900057FD9058440F551F59F05F3F71F047952D
:100CA000880F97FB991F61F09F3F79F08795089512
:100CB000121613061406551FF2CF4695F1DF08C031
:100CC000161617061806991FF1CF8695710561054E
:100CD00008940895E894BB2766277727CB0197F9F6
:100CE0000895EE0FFF1F0590F491E02D09940F93E6
:100CF000083090F0982F872F762F652F542F432F91
:100D0000322F22270850F4CF220F331F441F551FC4
:100D1000661F771F881F991F0A95B2F70F910895D4
:100D200097FB10F8169400080F93083098F00850BD
:100D3000232F342F452F562F672F782F892F902D53
:100D4000F4CF05949795879577956795579547952F
:100D5000379527950A95AAF70F9108952A0D3B1DFF
:100D60004C1D5D1D6E1D7F1D801F911F0895A0E00D
:100D7000B0E0EDEBF6E00C949E09AE014B5F5F4FE7
:100D8000FA0161917191AF0180916D0190916E01B5
:100D90000E94FD06E2E00C94BA090F931F93CF93D3
:100DA000DF93E0916D01F0916E01238121FF1BC063
:100DB0008C01D0E0C0E0F80181918F0160916D015C
:100DC00070916E01DB011896ED91FC9119978823C3
:100DD00031F00995892B79F3DFEFCFEFECCF8AE083
:100DE0000995892B19F08FEF9FEF02C08D2F9C2F53
:100DF000DF91CF911F910F910895ABE0B0E0E3E058
:100E0000F7E00C948E096C017B018A01FC011782CA
:100E10001682838181FFCCC1CE0101963C01F6018F
:100E20009381F70193FD859193FF81917F01882341
:100E300009F4BAC1853239F493FD859193FF81910C
:100E40007F01853229F4B60190E00E94F408E7CFD3
:100E5000912C212C312CFFE1F315D8F08B3279F055
:100E600038F4803279F08332A1F4232D20611DC043
:100E70008D3261F0803369F4232D216016C0832DFB
:100E80008260382EE32DE4603E2E2AC0F32DF860F8
:100E90001DC037FC2DC020ED280F2A3040F08E32C7
:100EA000B9F436FC81C1232D2064322E19C036FEE0
:100EB00006C08AE0989E200D1124922E11C0EAE00F
:100EC0002E9E200D1124222EF32DF0623F2E08C0FD
:100ED0008C3621F4832D8068382E02C0883641F488
:100EE000F70193FD859193FF81917F018111B3CF2C
:100EF000982F9F7D9554933028F40C5F1F4F9FE3EC
:100F000099830DC0833631F0833771F0833509F052
:100F100059C021C0F801808189830E5F1F4F88244A
:100F20008394912C530113C02801F2E04F0E511C01
:100F3000F801A080B18036FE03C0692D70E002C0C8
:100F40006FEF7FEFC5010E94E9084C018201F32D8C
:100F5000FF773F2E16C0280122E0420E511CF801F7
:100F6000A080B18036FE03C0692D70E002C06FEF33
:100F70007FEFC5010E94DE084C01F32DF0683F2E83
:100F8000820133FC1BC0822D90E088169906B0F4D4
:100F9000B60180E290E00E94F4082A94F4CFF501B3
:100FA00037FC859137FE81915F01B60190E00E9488
:100FB000F40821102A9421E0821A910881149104E6
:100FC00071F7E8C0843611F0893641F5F80137FE33
:100FD00007C060817181828193810C5F1F4F08C0BF
:100FE00060817181072E000C880B990B0E5F1F4FDB
:100FF000F32DFF763F2E97FF09C090958095709551
:1010000061957F4F8F4F9F4FF0683F2E2AE030E071
:10101000A3010E943009882E861845C0853731F417
:10102000232D2F7EB22E2AE030E025C0932D997F0C
:10103000B92E8F36C1F018F4883579F0B5C08037F5
:1010400019F0883721F0B0C0E92FE061BE2EB4FE60
:101050000DC0FB2DF460BF2E09C034FE0AC0292F3D
:101060002660B22E06C028E030E005C020E130E066
:1010700002C020E132E0F801B7FE07C06081718153
:10108000828193810C5F1F4F06C06081718180E077
:1010900090E00E5F1F4FA3010E943009882E861832
:1010A000FB2DFF773F2E36FE0DC0232D2E7FA22E67
:1010B000891458F434FE0BC032FC09C0832D8E7E97
:1010C000A82E05C0B82CA32C03C0B82C01C0B92C85
:1010D000A4FE0FC0FE01E80DF11D8081803321F4D4
:1010E0009A2D997EA92E09C0A2FE06C0B394B3948E
:1010F00004C08A2D867809F0B394A3FC11C0A0FE29
:1011000006C0B21488F4280C922C9B180EC0B2149E
:1011100060F4B60180E290E00E94F408B394F7CF47
:10112000B21418F42B1802C0982C212CA4FE10C065
:10113000B60180E390E00E94F408A2FE17C0A1FC73
:1011400003C088E790E002C088E590E0B6010CC0DB
:101150008A2D867859F0A1FE02C08BE201C080E2A0
:10116000A7FC8DE2B60190E00E94F408891438F4DF
:10117000B60180E390E00E94F4089A94F7CF8A9435
:10118000F301E80DF11D8081B60190E00E94F408A2
:101190008110F5CF222009F442CEB60180E290E022
:1011A0000E94F4082A94F6CFF6018681978102C046
:1011B0008FEF9FEF2B96E2E10C94AA09FC010590BA
:1011C000615070400110D8F7809590958E0F9F1F49
:1011D0000895FC016150704001900110D8F780958E
:1011E00090958E0F9F1F08950F931F93CF93DF93BA
:1011F000FB01238121FD03C08FEF9FEF2CC022FF55
:1012000016C046815781248135814217530744F423
:10121000A081B1819D012F5F3F4F318320838C934B
:10122000268137812F5F3F4F3783268314C08B0180
:10123000EC01FB010084F185E02D0995892BE1F695
:10124000D80116968D919C911797019617969C93AD
:101250008E931697CE01DF91CF911F910F91089534
:10126000FA01AA27283051F1203181F1E8946F93D7
:101270006E7F6E5F7F4F8F4F9F4FAF4FB1E03ED07D
:10128000B4E03CD0670F781F891F9A1FA11D680F1B
:10129000791F8A1F911DA11D6A0F711D811D911D4E
:1012A000A11D20D009F468943F912AE0269F1124C3
:1012B0003019305D3193DEF6CF010895462F477027
:1012C000405D4193B3E00FD0C9F7F6CF462F4F7082
:1012D000405D4A3318F0495D31FD4052419302D0E0
:1012E000A9F7EACFB4E0A695979587957795679586
:1012F000BA95C9F700976105710508959B01AC0186
:101300000A2E06945795479537952795BA95C9F7AC
:10131000620F731F841F951FA01D08952F923F9287
:101320004F925F926F927F928F929F92AF92BF92F5
:10133000CF92DF92EF92FF920F931F93CF93DF93A1
:10134000CDB7DEB7CA1BDB0B0FB6F894DEBF0FBEFE
:10135000CDBF09942A88398848885F846E847D844B
:101360008C849B84AA84B984C884DF80EE80FD804D
:101370000C811B81AA81B981CE0FD11D0FB6F894C3
:0E138000DEBF0FBECDBFED010895F894FFCF84
:10138E0009092D2D2D2D2D2D2D2D2D2D2D2D2D2DC7
:10139E002D2D2D55735F496E69745F544553542D31
:1013AE002D2D2D2D2D2D2D2D2D2D2D2D00746573C7
:1013BE0074436173652025642020506173736564E6
:1013CE002E0A0074657374436173652025642020B2
:1013DE004661696C65642E0A0009092D2D2D2D2D8F
:1013EE002D2D2D2D2D2D2D2D2D2D2D2D55735F5458
:1013FE007269676765725F544553542D2D2D2D2DDF
:10140E002D2D2D2D2D0009092D2D2D2D2D2D2D2D73
:10141E002D2D2D2D2D2D2D2D2D55735F476574449E
:10142E00697374616E63655F544553542D2D2D2D74
:10143E002D2D2D2D2D2D2D2D2D000A0A093D3D3D35
:10144E003D3D3D3D3D3D3D3D3D3D3D3D3D3D3D3DBE
:10145E003D3D3D3D3D3D55735F4D6F64756C655F24
:10146E00544553543D3D3D3D3D3D3D3D3D3D3D3D52
:10147E003D3D3D3D3D3D3D3D3D3D3D0A00010000B4
:00000001FF
