:100000000C9432000C944F000C944F000C943F035E
:100010000C944F000C9483030C944F000C944F00ED
:100020000C944F000C944F000C944F000C947400EF
:100030000C944F000C944F000C944F000C944F0004
:100040000C944F000C944F000C944F000C944F00F4
:100050000C944F00D001C301C501C701C901CB01F8
:10006000CD01CF0111241FBECFE5D8E0DEBFCDBF4B
:1000700010E0A0E6B0E0EEE5F7E002C005900D92DA
:10008000A436B107D9F720E0A4E6B0E001C01D9284
:10009000A93BB207E1F70E945F000C94AD030C94FA
:1000A00000008FEF8ABB9BB380EF89278BBB08953D
:1000B0008FEF8ABB9BB38FE089278BBB089581E6C6
:1000C00090E00E94EC0120E043E061E570E081E017
:1000D0000E942A0220E046E068E570E082E00E948B
:1000E0002A020E94E902FDCF78941F920F920FB668
:1000F0000F9211248F939F9381E090E0909365007D
:100100008093640081EC82BF9F918F910F900FBE0E
:100110000F901F901895FC0180818130D9F120F05B
:10012000823009F486C0B2C013BE12BE89B78E7F7A
:1001300089BF89B78D7F89BF88B7816088BF89B73C
:10014000816089BF8181813041F028F0823051F493
:1001500083B7866004C083B702C083B7876083BF5C
:1001600090E001C09CEE8381843041F018F483302C
:1001700040F404C02AEF280F223018F4809368005E
:1001800001C09CEE8281882309F47EC0813009F48D
:100190007BC07EC01FBC1EBC1DBC1CBC1BBC1ABCD3
:1001A00019BC18BC17BC16BC89B78F7D89BF89B72D
:1001B0008F7E89BF89B7877F89BF89B78B7F89BFCA
:1001C00088B7806288BF88B7806188BF88B7886039
:1001D00088BF88B7846088BF8181813051F030F05A
:1001E000823071F48EB59FB5866006C08EB59FB51E
:1001F00003C08EB59FB587609FBD8EBD90E001C0E6
:100200009CEE8381843041F018F4833040F404C0C4
:100210002AEF280F223018F48093670001C09CEE6B
:100220008281882389F18130A1F589B7846089BFF3
:1002300030C015BC14BC89B78F7B89BF89B78F7755
:1002400089BF88B7806488BF82B5877F82BD81817E
:10025000882329F0813041F482B5886002C082B5DC
:10026000877F82BD90E001C09CEE8381883018F4C6
:100270008093660001C09CEE8281882329F0813042
:1002800041F489B78064D3CF89B7D1CF90E001C062
:100290009CEE892F90E00895813081F120F082302A
:1002A00009F45EC029C06F3F710511F008F07AC0F3
:1002B000609562BF809168008230A9F040F4882385
:1002C00081F0813009F06EC083B7816014C0863040
:1002D00069F0873071F0843009F064C083B78360BF
:1002E0000AC083B708C083B7826005C083B7846043
:1002F00002C083B7856083BF80E055C0609570956C
:100300007DBD6CBD8EB59FB5887F9FBD8EBD809134
:1003100067008230B9F048F4882389F0813009F011
:1003200041C08EB59FB5816018C0863079F08730A6
:1003300089F08430B9F58EB59FB583600EC08EB557
:100340009FB50BC08EB59FB5826007C08EB59FB5B7
:10035000846003C08EB59FB585609FBD8EBDCCCF38
:100360006F3F710509F0F0F4609564BDE09166009F
:100370008E2F90E088309105A8F4FC01E65DFF4FD8
:1003800085B50C94A70381600BC0826009C08360AF
:1003900007C0846005C0856003C0866001C08760B7
:1003A00085BDAACF8CEE90E00895813059F030F0F1
:1003B000823079F485B5887F85BD09C083B7887F91
:1003C00083BF05C08EB59FB5887F9FBD8EBD80E081
:1003D00001C08CEE90E00895CF93DF9300D000D061
:1003E00000D0CDB7DEB72091B400211122C0009714
:1003F00019F1FC0121812B3010F580818330F8F454
:1004000091E09093B4008093B300813021F082306A
:1004100029F0198204C089838B8302C089839B835E
:1004200086E08C83CE0101960E948B0080E090E0F4
:1004300008C089E99FEF05C08BE99FEF02C087E9FB
:100440009FEF26960FB6F894DEBF0FBECDBFDF91AB
:10045000CF910895DF92EF92FF920F931F93CF9366
:10046000DF93E82FEB013091B4008B30C0F420977C
:10047000B1F0493CA0F4223090F4332309F456C083
:10048000082F10E004591F4FD8018C91813039F0AA
:1004900060916200842F0E949B039923D9F033233B
:1004A00009F444C0CD2B09F444C0EB3008F044C03B
:1004B000F0E0E459FF4F80818130F1F12230E0F526
:1004C000493CD0F560916200842F0E949B039923E0
:1004D00051F132C0D22EE42EFE2E80916B0081119C
:1004E00009C06EE370E08091B3000E944C0181E08E
:1004F00080936B00609162008E2D0E949B03E091BF
:100500006000EF5FE0936000B6E0EB02F0011124C1
:10051000E958FF4FF082D283C18383831482D5824E
:1005200081E0F801808380E090E008C08AE99FEFD5
:1005300005C08BE99FEF02C087E99FEFDF91CF9164
:100540001F910F91FF90EF90DF900895CF93DF936D
:100550009091B4009923A9F18B30B0F5C82FD0E069
:10056000C459DF4F9881913079F520E036E0622F51
:1005700070E090916000492F092E000C550B461732
:100580005707E4F0369FD001379FB00D1124A958CA
:10059000BF4F6C91861310C0349FF001359FF00D52
:1005A0001124E958FF4F46E001900D924A95E1F77A
:1005B00091509093600018822F5FD9CF80E090E037
:1005C00005C08AE99FEF02C087E99FEFDF91CF91D5
:1005D00008950F931F93CF93DF938091B4008823E6
:1005E00009F446C08091640090916500892B91F0D8
:1005F000109265001092640080916A008F5F809372
:100600006A0090916200891305C010926A0081E02F
:100610008093690080916900811103C080E090E0BF
:1006200029C01092690010E006E0212F30E080918F
:100630006000082E000C990B821793077CF3029F31
:10064000E001039FD00D1124C958DF4F8C818F5FCB
:100650008C839B8189130AC01C82E981FA810995E8
:100660008D81813019F488810E94A6021F5FDDCF41
:100670008AE99FEFDF91CF911F910F9108957894B0
:100680001F920F920FB60F9211242F933F934F9307
:100690005F936F937F938F939F93AF93BF93EF93EA
:1006A000FF938FEF8ABB60E071E082E00E944C0113
:1006B0008091B60080FF0BC082E00E94D5011092AD
:1006C000B60081E08093B50084B780640AC060E022
:1006D00071E082E00E944C0181E08093B60084B713
:1006E0008F7B84BFFF91EF91BF91AF919F918F91CD
:1006F0007F916F915F914F913F912F910F900FBE1E
:100700000F901F90189578941F920F920FB60F922A
:1007100011248F939F938091B7009091B800019618
:100720009093B8008093B7009F918F910F900FBE68
:100730000F901F901895991B79E004C0991F961788
:1007400008F0961B881F7A95C9F780950895EE0FDB
:0E075000FF1F0590F491E02D0994F894FFCF5F
:04075E00FF00010097
:00000001FF
